:03800000028C5996
:0C8C5900787FE4F6D8FD758162028CA0E3
:0B90DA00EF1FAC0670011E4C70F62268
:10800F00AB07AA06EB1BAE0270011A4E60097F7E0A
:08801F007E061290DA80ED22CA
:108FBD007852E2543FF2E24480F27854E2543FF2A8
:078FCD0043D101755E022291
:108FD4007852E254CFF2E24420F27854E254CFF2D1
:078FE40043D101755E01227B
:0D908D007852E2543FF2E24440F2C28322E6
:0D909A007852E254CFF2E24410F2C282227A
:108FEB0053D1FE7852E2540FF2E24450F2C282C2E5
:078FFB0083E4F55FF55E223F
:108EE300BF010D75CD0575CC7375CF0575CE732296
:108EF300BF020D75CD0575CCD475CF0575CED422C3
:108F0300BF030C75CD0675CC4875CF0675CE4822C8
:108F1300E4FEE55F7003C20A227F03128F7E128B89
:108F23002CC3EF94BCEE94004004D20A8002C20A20
:078F3300301204D214D20B2E
:018F3A002214
:0E907F007852E254F3F2E24408F243C00222B7
:10906F0053C0FC7852E254F3F2E24404F2C281227C
:108F9E00AB07AA06C3E5599FFFE5589EFEE5579419
:0F8FAE0000FDE55694008F598E588D57F55622C9
:108F7E00BF0205759804800EBF0105759805800621
:108F8E00BF03037598067591147F017E0002800F52
:108B2C00E4FBF554F555F559F558F557F556F55A46
:108B3C00F55B74FFF55CF55D439101E59330E1FB6A
:108B4C00759302AF94EF75F010A4FFAD95E5F0F5B9
:108B5C0054EF4DF555EBC39402403BD3E555955B73
:108B6C00E554955A400685545A85555BC3E5559591
:108B7C005DE554955C500685545C85555DAE54AFEF
:108B8C0055E4FCFDE5592FFFE5583EFEED3557FD4C
:108B9C00EC3556128FB40BBB149EAE5AAF5B128FD2
:108BAC009EAE5CAF5D128F9EAF59AE58AD57AC56B2
:0D8BBC0078041287AE8E548F55AE54AF551D
:018BC9002289
:0890EE00C21AE4F51AF51C2278
:108CE500E4F549208705754901800B2090057549F4
:108CF500028003E4F549E51A65496032E51A700416
:108D0500F51C8060E549705CE51CC3944B5015E586
:108D15001AB40105751B01804BE51A64027045758F
:108D25001B038040E51A6401703AC21A8036E54992
:108D35006032E51CC394FF5002051CE549640170CF
:108D450023E55F7004E562600CE51CC394C840141C
:108D5500201A11800AE51CC394C84008201A05751D
:078D65001B02D21A85491A16
:018D6C0022E4
:108DCC00300D028040E51B64027014209102802556
:108DDC003016053087FD801DC2911290308026E53B
:108DEC001BB4011720910EE55F7003128FD4E4FFC2
:108DFC00128E158010D214D20B800AE51BB4030519
:098E0C00E4FF128E5CE4F51B2268
:0990E500C2117F017E0002800F20
:109002007862E2543FF2E24480F27864E2543FF242
:0790120075E10775DFD122B3
:0D90A7007862E2543FF2E24440F2C29322AC
:109019007862E254CFF2E24420F27864E254CFF26B
:0790290075E30775E2D12297
:0D90B4007862E254CFF2E24410F2C2922240
:03802700028EA224
:108EA200C0E0C0D0E5FC30E530E51F700BE5FF64A3
:108EB200A57026751F018021E51FB4010885FF1DDD
:108EC200751F028014E51FB4020FE51D24A5B5FF2E
:108ED20005851D1ED207751F0043FC08D0D0D0E0C7
:018EE200325D
:108D6D0001190010080000000000000000000000C4
:088D7D000000000000011800D5
:0C90CE0025E02408F8E6FE08E6254F2205
:1083C100E4F547F548F549F54A7F01128F7E128B96
:1083D1002C8E478F487F02128F7E128B2C8E498FF5
:1083E1004AC3E548944EE547940B5004D2168004E5
:1083F100C216C206200D0302848D200468C3E5481D
:1084010094FDE547940E4009E4F5C6F5C7051980CA
:1084110022C3E54894E5E547940D4004D218801342
:10842100C3E5489466E547940D4004D2198004C21F
:1084310018C21930171220080FD2087F017E0012CE
:10844100800F1290A7129019201507E519C39408FF
:108451004013E4F519D20412906FE4F5C6F5C71282
:1084610090A7129019C3E54994085004D2108002D4
:10847100C210200965C20DC218C219C208C204E4A3
:10848100F519D20B7F01FE12800F804E209128D367
:10849100E548944EE547940B5004D2068002C2068B
:1084A100300214200111200B0E200A0B1290E5124C
:1084B10090B41290A7D201C3E54994084004D20CAC
:1084C1008002C20C300913D20DC206C20112907F84
:1084D100D214C20B1290E51290B4200D03028669EA
:1084E100E4F54BE5C404F54C85C64D8547508548F8
:1084F10051D3E54894C0E547940A50047450801C58
:10850100D3E5489415E547940B5004743C800DD392
:10851100E5489494E547940B500974142551F5519D
:10852100E4804FD3E5489413E547940C500A74E76F
:088531002551F55174FF803A59
:10853900E54824EDFFE54734F3FE7C017D7D128794
:10854900C1E47BF47A01F9F81286F58E528F53C390
:10855900E553944FE55294004016E55324B1FFE5E5
:108569005234FFFEEF2551F551EE3550F550801587
:10857900C3744F9553FFE49552FEC3E5519FF551DE
:05858900E5509EF550D5
:10858E00E4F54BD3E5519402E55094004008E551D3
:10859E00155170021550054BE54BB478E6AE49AF58
:1085AE004AAD4C7C001287C1E47B5EFAF9F8128664
:1085BE006AE47B93FAF9F81286F5C006C007AE504E
:1085CE00AF51AB07AA06E4F9F8D007D0061286F52C
:1085DE00AD4C7C00C3ED9FF54FEC9EF54EC3E54FC1
:1085EE009DE54E9C4005E4F54EF54F0518531807D2
:1085FE00AF18EF1290CEFFE54E3EC313FEEF13FF02
:10860E00AD18ED25E02408F8A60608A607E4F54EF9
:10861E00F54FF54BE54B1290CEF54FEE354EF54E30
:10862E00054BE54BB408EDAE4EE54F7803CEC313C4
:10863E00CE13D8F9F54F8E4EAF4FEFD3954D400474
:10864E00054D8010AF4FEFC3954D5008E54D940189
:0B865E004002154DAF4D8FC6E4F5C77C
:0186690022EE
:0D90C100E4F5622001061290A7129019221A
:108E5C008F481290E5E548701AE56270057562015D
:108E6C00801EE562B401057562028014E562B402ED
:108E7C000F8005E548B403051290C1800385486254
:108E8C00200112E562600E1290B41290027560011E
:068E9C00856261D2112283
:068A2800200703028B2B66
:108A2E00851E47C207D20E7F017E0012800FE547DA
:108A3E0064017039E55F6003028B2B7F02128EE3B7
:108A4E00128FD4755E01755F02300203028B2BE527
:108A5E0062700B1290A71290197560028009129025
:108A6E00B4129002756001855F61D21122E547B4A0
:108A7E000A11E4F562128FEB1290A71290E5129094
:108A8E00198026E547B40212E5626003028B2BE5DE
:108A9E005F7003028B2BE4FF8033E547B40316E5CA
:108AAE0062607A1290E51290C17F647E0012800F90
:108ABE007560028063E547B40808E562605F7F0178
:108ACE00800BE547B40909E56260527F02028E5CB5
:108ADE00E55F6049E547B405047F018010E547B4C2
:108AEE0006047F028007E547B407057F03028E1553
:108AFE00E54764047027D205D20F1290E520011DC0
:108B0E00E562700B1290A71290197560028009121F
:0D8B1E0090B4129002756001756101D211D2
:018B2B002227
:108917003087FD1290EE78527455F2087415F2788C
:10892700627455F253A8F75388FC12906F5391EB7A
:10893700128FEB53A9DF53FBEE53E4FE1290A712FD
:1089470090B4C294D29153808E7860E254FEF2C202
:108957009075AE557828E24410F275AEBB7859E2AF
:108967004480F243A8027869E24420F243A80475E0
:10897700AB1375ACFF43BE40782AE2440CF2780B88
:1089870074FFF27825E2541FF253BAFC7822E254BE
:10899700C7F27810E254FCF2E4F5A47830E2547F91
:1089A700F27820E2549FF243BE017825E24460F258
:1089B70075ACFF7820E24460F27830E24480F275CB
:1089C700A4547810E24403F243BA037869E254DF0F
:1089D700F253A8FB7859E2547FF253A8FD53ABEC4E
:1089E70075AE557828E254EFF275AEBB3087033089
:0289F7009529C0
:1089F900E4F547F548F54730870330950205487F88
:108A0900017E0012800F0547E547C394C840E8E599
:098A190048C394B4500302891D06
:068A2200128BCA028CE574
:038006000290479E
:10904700C0E0C0D075D000C0007858E4F2D000D09E
:04905700D0D0E03263
:0380090002905B87
:10905B00C0E0C0D075D000C0007868E4F2D000D07A
:04906B00D0D0E0324F
:108D85000124000125000126000227000001290019
:108D9500012A00012B00042C000000000230000015
:108DA500023200000234000002360000C100023821
:108DB5000000013A00023B0000043D0000000001F4
:068DC50041000242000023
:108F5D00752F00752E00752D00752C0022754000A3
:108F6D00753F00753E00753D002275270075280080
:018F7D0022D1
:109030007F02128EE3128FD4755F02129019756051
:0790400002855F61D21122DD
:108F3B001290E51290B4200D031290A7E4F5621283
:108F4B008FEB200D0CC208C204C218C206C213C29A
:028F5B000122F1
:108E1500EF7019E55FB40205755F038011E55FB476
:108E25000305755F018007755F0280028F5FAF5F85
:108E3500128EE31290E520011DE562700B1290A7DA
:108E450012901975600280091290B4129002756033
:078E550001855F61D21122CB
:108BCA00D2AF78507480F278607401F2785274AA45
:108BDA00F208743FF278627454F2087401F278541D
:108BEA00F2785A7470F21290B41290A7E4F5E5750F
:108BFA00DE0775DDD075EA1075EB1043E40143A872
:108C0A0008758CFEF58A7589A07588FD75C4C3F54B
:108C1A00C5F5C6F5C775C01E12906F7832E244C01A
:108C2A00F27834E24401F275923C759AFFE4F5D287
:108C3A0075CB0675CA4775D71075D81043D101127E
:0F8C4A008FEB43A92075FE0175FD1475FB932276
:1087EE00909111E493547F75AEDD75A35575A45425
:1087FE0075AA0A44807830F278107403F27812E485
:10880E00F27816741FF27F017E0012800F9091365F
:10881E00E493B479137825E254E0F2E2FF909123C9
:10882E00E493541FFEEF4EF275AE557828E254FCD9
:10883E00F275AEBB128BCA1290197FE87E031280BE
:10884E000F1290B475C637E4F5C712907F7F647E21
:09885E000012800F7F01128F7ED1
:10886700E4F544F545F546F544128B2C8E458F46C5
:10887700C3E54694FDE545940E4002D2030544E561
:0688870044C3940A40E323
:06888D0012906FE4F5C635
:108893007F02128F7E128B2C8E448F45C3E5449446
:0588A300085002D20B99
:1088A8003003161290027FC87E0012800F1290A724
:1088B8007FC87E0012800F80E71283C1301305C283
:1088C80013128CE5128DCC128A28300528C205E5D2
:1088D8005EB4010F12909A7FF47E0112800F128FFE
:1088E800BD8012E55EB4020D12908D7FF47E0112F8
:1088F800800F128FD4128F1330140AC214300D0255
:0F890800D291128F3B300B98C20B1289178091BE
:03800C0002802AC5
:10802A00C0E0C0F0C083C082C0D075D000C000C01C
:10803A0001C002C003C004C005C006C007E589200C
:08804A00E7030283A6438980CD
:0E8052000524E524C3940A4005752400D213CA
:10806000300D1A3010100525E525C394FA40267509
:108070002500C209801F752500D2098018300C1018
:108080000526E526C394FA400C752600D209800522
:05809000752600C20985
:10809500301109E529700E7529018009752900122D
:1080A5008F77752A00E529B4011B0528E52870029C
:1080B5000527C3E52894F4E5279401406B128F77D3
:1080C5007529028063E5296402705DE52A700385E0
:1080D500612AE52A60520528E52870020527D3E5BF
:1080E5002894F4E52794015015E560B40105129034
:1080F500A78035E5606402702F1290B4802AC3E52D
:108105002894E8E52794035014E560B4010512901E
:10811500028015E560B40210129019800B128F775A
:08812500D52A05C211752900DD
:10812D00E562B40104D2948022E562B40218052BF5
:10813D00E52BD394055004D2948010E52BC3940AFB
:0B814D005006C2948005C294752B0000
:1081580020913E200D3BAF2FAE2EAD2DAC2CEF2441
:1081680001FFE43EFEE43DFDE43C8F2F8E2E8D2D75
:10817800F52C7FC07E277D097C00AB2FAA2EA92D68
:10818800A82CC312879D400C128F5DD214D20B808D
:0481980003128F5DE2
:10819C00E55F6028200F250531E53170020530AE12
:1081AC0030AF31E4FCFD7B607AEAF9F8D3128787B3
:1081BC005015753000753100D205800B7530007587
:0781CC003100300F02C20F69
:1081D30030191D0533E53370020532C3E533948846
:1081E300E53294134012753200753300D2178008BC
:0881F300753200753300C2175C
:1081FB0030181D0535E53570020534C3E535948817
:10820B00E53494134012753400753500D21580088F
:08821B00753400753500C21531
:1082230030061D0537E53770020536C3E53794E898
:10823300E53694034012753600753700D202800884
:08824300753600753700C20218
:10824B0030010D200A0A20910720000FD200800B6D
:10825B00753800753900C200753A00300042053997
:10826B00E53970020538D3E53994F4E538940150BB
:10827B0005129002802AC3E53994E8E5389403503F
:10828B00051290A7801A753800753900053AE53A42
:10829B00C39405400B753A00C200C201D214D20B35
:1082AB00300A21E55F601D053CE53C7002053BC3D0
:1082BB00E53C9410E53B94274012753B00753C0060
:0C82CB00D2128008753B00753C00C21206
:1082D700200E42200D3FE55F703BE5627037200BB3
:1082E70034E5402401FFE4353FFEE4353EFDE43547
:1082F7003D8F408E3F8D3EF53D7FC07ED47D017C16
:1083070000AB40AA3FA93EF8C312879D400C128FCD
:0A8317006AD20B8005128F6AC20EB5
:10832100300D0F20080C200409E541700E75410144
:108331008009754100754200754300E541B4010EA5
:108341007542077543D17541021290028057E5418C
:10835100B40220D3E5439400E5429400400AE5438A
:108361001543703A154280367541037542007543D5
:1083710000802BE5416403702CAE42AF43FCFD7BD2
:10838100D17A07F9F8D312879D400A0543E5437076
:108391000D054280097541027542077543D1E542D9
:0583A100F5E18543DF5A
:1083A600D007D006D005D004D003D002D001D0002B
:0B83B600D0D0D082D083D0F0D0E032D5
:108C65000287EEE493A3F8E493A34003F68001F2B0
:108C750008DFF48029E493A3F85407240CC8C33310
:108C8500C4540F4420C8834004F456800146F6DFDF
:108C9500E4800B0102040810204080908D6DE47E75
:108CA500019360BCA3FF543F30E509541FFEE493D4
:108CB500A360010ECF54C025E060A840B8E493A39B
:108CC500FAE493A3F8E493A3C8C582C8CAC583CAC6
:108CD500F0A3C8C582C8CAC583CADFE9DEE780BE7E
:018DCB0000A7
:10866A00E88FF0A4CC8BF0A42CFCE98EF0A42CFCAF
:10867A008AF0EDA42CFCEA8EF0A4CDA8F08BF0A42D
:10868A002DCC3825F0FDE98FF0A42CCD35F0FCEB8C
:10869A008EF0A4FEA9F0EB8FF0A4CFC5F02ECD3951
:0F86AA00FEE43CFCEAA42DCE35F0FDE43CFC22BE
:1086B90075F008758200EF2FFFEE33FECD33CDCC78
:1086C90033CCC58233C5829BED9AEC99E5829840FB
:1086D9000CF582EE9BFEED9AFDEC99FC0FD5F0D6D8
:1086E900E4CEFBE4CDFAE4CCF9A88222B800C1B902
:1086F9000059BA002DEC8BF084CFCECDFCE5F0CB40
:10870900F97818EF2FFFEE33FEED33FDEC33FCEB78
:1087190033FB10D703994004EB99FB0FD8E5E4F933
:10872900FA227818EF2FFFEE33FEED33FDEC33FC20
:10873900C933C910D7059BE99A4007EC9BFCE99A14
:10874900F90FD8E0E4C9FAE4CCFB2275F010EF2F59
:10875900FFEE33FEED33FDCC33CCC833C810D70759
:108769009BEC9AE899400AED9BFDEC9AFCE899F894
:0E8779000FD5F0DAE4CDFBE4CCFAE4C8F92227
:10878700EB9FF5F0EA9E42F0E99D42F0EC6480C869
:0687970064809845F02209
:10879D00EB9FF5F0EA9E42F0E99D42F0E89C45F032
:0187AD0022A9
:1087AE00E8600FECC313FCED13FDEE13FEEF13FFA9
:0387BE00D8F122CD
:1087C100EC8EF0A4CCC5F0CCCDF8EFA4CEC5F02D45
:1087D100FDE43CFCE8A42EC8C5F03DFDE43CFCEF03
:0D87E100A4FFE5F028FEE43DFDE43CFC2291
:00000001FF
